:1004C40050617373776F72643A004F4B200065720A
:0204D4007200B4
:0704F900011C0002180000C5
:10018C001204B07BFF7A0479C47D017F011204272D
:10019C001200038F1CE51C60F7D3940A5041C3E591
:1001AC00199404E51894005036AE1AAF1B7C007DF0
:1001BC000A1202568E1A8F1BE51C75F00A84E5F0A4
:1001CC00251BF51BE4351AF51A0519E519700205FE
:1001DC0018750C04AB1BAA1A7D017F02120468E58A
:1001EC001CB40BACE51BB4290DE51AB409087BFF54
:1001FC007A0479CE80067BFF7A0479D27D0E7F015A
:10020C00120427E4F51AF51BF518F519750C04AB57
:0D021C001BAA1A7D017F0212046802019CDA
:10049B00EF1FAC0670011E4C600A7D027CEFDCFE88
:0404AB00DDFC80EC08
:0104AF00222A
:0604D600C2A58F80D2A731
:0804DC007F027EEFDEFEDFFC73
:0104E40022F5
:0A04E500C2A61204D6C2A70204DC6E
:10044A00CFCDCFCECCCE1202687C007D0A120268D4
:04045A00ED2430FF5E
:0A045E00D2A61204D6C2A70204DCE5
:10048500AE07BE0104ED148006BE0209ED243F440B
:0604950080FF1204E522C5
:1004B0007F381204E57F0C1204E57F061204E57F05
:0404C000010204E54C
:0A04EF00AC03120485AF0402045EA2
:060427008B088A09890A16
:10042D00120485E4FDAB08AA09A90A8D8275830023
:0C043D00120229FF600612045E0D80E927
:010449002290
:0C03F4007F0AEA24FFFDE434FFFC7E00D9
:080400008E0D8F0E8C0F8D1084
:100408007F017E00E4FBEBC39510E50F6480F87470
:0E0418008098500AAC0DAD0E1202560B80E813
:0104260022B3
:040468008A0A8B0B66
:10046C00120485AA0CEAD39400400D1203F4AC0AD2
:08047C00AD0B12044A1A80EDD9
:010484002255
:10034900120485C3EA64809480400B7F2B12045EFB
:100359008A168B17800E7F2D12045EC3E49BF51756
:10036900E49AF516AA15EAD39400400D1203F4ACE9
:0903790016AD1712044A1A80EDBA
:010382002258
:040383008A1F8B2022
:10038700120485AA21EAD3940040297F101203F6AC
:10039700AC1FAD20CFCDCFCECCCE120268EF540F1D
:1003A700FEC3940AEE5004243080022437FF12045F
:0403B7005E1A80D179
:0103BB00221F
:0403BC008A248B25DF
:1003C000120485AA26EAD394004028EA24FFFDE41B
:1003D00034FFFC7F027E00120400AC24AD25CFCD9B
:1003E000CFCECCCE120268EF54012430FF12045E4F
:0303F0001A80D29E
:0103F30022E7
:10000300E4F5087590FFC2932097137F14FE120442
:100013009B3097FD7F147E0012049B750801209688
:10002300147F147E0012049B3096FD7F147E001211
:10003300049B7508052095147F147E0012049B30E1
:1000430095FD7F147E0012049B7508092094147F8C
:10005300147E0012049B3094FD7F147E0012049BD7
:1000630075080D7590FFC2922097147F147E0012BD
:10007300049B3097FD7F147E0012049B75080220B9
:1000830096147F147E0012049B3096FD7F147E002D
:1000930012049B7508062095147F147E0012049B9E
:1000A3003095FD7F147E0012049B75080A2094147A
:1000B3007F147E0012049B3094FD7F147E00120493
:1000C3009B75080E7590FFC2912097147F147E00D4
:1000D30012049B3097FD7F147E0012049B75080366
:1000E3002096147F147E0012049B3096FD7F147EAD
:1000F3000012049B7508072095147F147E001204D8
:100103009B3095FD7F147E0012049B75080B209491
:10011300147F147E0012049B3094FD7F147E001222
:10012300049B75080F7590FFC2902097147F147E6F
:100133000012049B3097FD7F147E0012049B750808
:10014300042096147F147E0012049B3096FD7F14C6
:100153007E0012049B7508082095147F147E0012FC
:10016300049B3095FD7F147E0012049B75080C20C0
:1001730094147F147E0012049B3094FD7F147E0040
:0801830012049B750810AF087F
:01018B002251
:030000000202BD3C
:0C02BD00787FE4F6D8FD7581260203046A
:10022900BB010CE58229F582E5833AF583E022508A
:1002390006E92582F8E622BBFE06E92582F8E222D4
:0D024900E58229F582E5833AF583E49322EE
:10025600EF8DF0A4A8F0CF8CF0A428CE8DF0A42EBC
:02026600FE2276
:10026800BC000BBE0029EF8DF084FFADF022E4CC7A
:10027800F875F008EF2FFFEE33FEEC33FCEE9DEC43
:10028800984005FCEE9DFE0FD5F0E9E4CEFD22ED89
:10029800F8F5F0EE8420D21CFEADF075F008EF2FD3
:1002A800FFED33FD4007985006D5F0F222C398FDC4
:0502B8000FD5F0EA2261
:1002C90002018CE493A3F8E493A34003F68001F2BE
:1002D90008DFF48029E493A3F85407240CC8C33336
:1002E900C4540F4420C8834004F456800146F6DF05
:1002F900E4800B01020408102040809004F9E47E98
:10030900019360BCA3FF543F30E509541FFEE493F9
:10031900A360010ECF54C025E060A840B8E493A3C0
:10032900FAE493A3F8E493A3C8C582C8CAC583CAEB
:10033900F0A3C8C582C8CAC583CADFE9DEE780BEA3
:0105000000FA
:00000001FF
