:0602850068656C6C6F005F
:100097001202427513007514027B417D017F011224
:1000A700027B7BFF7A0279857D037F011201CE7582
:1000B7000C037B7B7A007D097F0112020F750C020E
:1000C7007BBE7AFF7D0D7F011200F0750C027BA8C5
:1000D7007A007D017F0212012A750C087BAA7A003B
:0900E7007D047F0212016380FE1A
:06025600C2A58F80D2A7B3
:08025C007F027EEFDEFEDFFCF5
:010264002277
:0A027100C2A6120256C2A702025CE8
:1001F100CFCDCFCECCCE1200427C007D0A12004280
:04020100ED2430FFB9
:0A020500D2A6120256C2A702025C44
:10022C00AE07BE0104ED148006BE0209ED243F4466
:06023C0080FF1202712296
:100242007F381202717F0C1202717F061202717FD7
:040252000102027132
:0A027B00AC0312022CAF04020205CE
:0601CE008B088A09890A72
:1001D40012022CE4FDAB08AA09A90A8D82758300DA
:0C01E400120003FF60061202050D80E906
:0101F00022EC
:0C019B007F0AEA24FFFDE434FFFC7E0034
:0801A7008E0F8F108C118D12D8
:1001AF007F017E00E4FBEBC39512E5116480F874C8
:0E01BF008098500AAC0FAD101200300B80E893
:0101CD00220F
:04020F008A0A8B0BC1
:1002130012022CAA0CEAD39400400D12019BAC0AE3
:08022300AD0B1201F11A80ED90
:01022B0022B0
:1000F00012022CC3EA64809480400B7F2B1202050D
:100100008A0D8B0E800E7F2D120205C3E49BF50E27
:10011000E49AF50DAA0CEAD39400400D12019BACB1
:090120000DAD0E1201F11A80ED83
:0101290022B3
:04012A008A0A8B0BA7
:10012E0012022CAA0CEAD3940040297F1012019DD2
:10013E00AC0AAD0BCFCDCFCECCCE120042EF540FCA
:10014E00FEC3940AEE5004243080022437FF1202BC
:04015E00051A80D12D
:01016200227A
:040163008A0A8B0B6E
:1001670012022CAA0CEAD394004028EA24FFFDE4EB
:1001770034FFFC7F027E001201A7AC0AAD0BCFCD86
:10018700CFCECCCE120042EF54012430FF1202052D
:030197001A80D2F9
:01019A002242
:0300000002026594
:0C026500787FE4F6D8FD75811402009744
:10000300BB010CE58229F582E5833AF583E02250B2
:1000130006E92582F8E622BBFE06E92582F8E222FC
:0D002300E58229F582E5833AF583E4932216
:10003000EF8DF0A4A8F0CF8CF0A428CE8DF0A42EE4
:02004000FE229E
:10004200BC000BBE0029EF8DF084FFADF022E4CCA2
:10005200F875F008EF2FFFEE33FEEC33FCEE9DEC6B
:10006200984005FCEE9DFE0FD5F0E9E4CEFD22EDB1
:10007200F8F5F0EE8420D21CFEADF075F008EF2FFB
:10008200FFED33FD4007985006D5F0F222C398FDEC
:050092000FD5F0EA2289
:00000001FF
