:0E02DC00436C6F636B3A0020203A20203A00FA
:1000A2001202B91202777BFF7A0279DC7D017F01AD
:1000B2001202197BFF7A0279E37D017F0212021993
:1000C200E51BFB7A00750C027D017F0212025AE5E4
:1000D2001CFB7A00750C027D047F0212025AE51A9B
:0F00E200FB7A00750C027D077F0212025A80D153
:03000B000200F1FF
:0400F100C0E0C0D0DB
:1000F500758A18758CFC0519E51970020518C394E5
:10010500E8E5189403402A751800751900051AE5E5
:100115001AD3943B401B751A00051CE51CD3943B70
:10012500400F751C00051BE51BD394174003751B79
:0101350000C9
:05013600D0D0D0E03242
:1002A400EF1FAC0670011E4C600A7D027CEFDCFE81
:0402B400DDFC80EC01
:0102B8002223
:0602CD00C2A58F80D2A73C
:0802D3007F027EEFDEFEDFFC7E
:0102DB002200
:0A02F600C2A61202CDC2A70202D375
:10023C00CFCDCFCECCCE12004D7C007D0A12004D1E
:04024C00ED2430FF6E
:0A025000D2A61202CDC2A70202D30B
:10028E00AE07BE0104ED148006BE0209ED243F4404
:06029E0080FF1202F622AF
:1002B9007F381202F67F0C1202F67F061202F67FD1
:0402C900010202F636
:0A030000AC0312028EAF040202509B
:060219008B088A09890A26
:10021F0012028EE4FDAB08AA09A90A8D827583002C
:0C022F0012000EFF60061202500D80E964
:01023B0022A0
:0C01E6007F0AEA24FFFDE434FFFC7E00E9
:0801F2008E0D8F0E8C0F8D1095
:1001FA007F017E00E4FBEBC39510E50F6480F87481
:0E020A008098500AAC0DAD0E12003B0B80E840
:0102180022C3
:04025A008A0A8B0B76
:10025E0012028EAA0CEAD39400400D1201E6AC0AEB
:08026E00AD0B12023C1A80EDF9
:010276002265
:10013B0012028EC3EA64809480400B7F2B12025014
:10014B008A168B17800E7F2D120250C3E49BF51776
:10015B00E49AF516AA15EAD39400400D1201E6AC09
:09016B0016AD1712023C1A80EDDA
:010174002268
:040175008A1F8B2032
:1001790012028EAA21EAD3940040297F101201E8C5
:10018900AC1FAD20CFCDCFCECCCE12004DEF540F4A
:10019900FEC3940AEE5004243080022437FF120271
:0401A900501A80D197
:0101AD00222F
:0401AE008A248B25EF
:1001B20012028EAA26EAD394004028EA24FFFDE424
:1001C20034FFFC7F027E001201F2AC24AD25CFCDBC
:1001D200CFCECCCE12004DEF54012430FF1202508C
:0301E2001A80D2AE
:0101E50022F7
:100277005389F0438901758A18758CFCC28DD28C1D
:07028700D2A9D2AFC2B922D7
:030000000202EA0F
:0C02EA00787FE4F6D8FD7581260200A2A2
:10000E00BB010CE58229F582E5833AF583E02250A7
:10001E0006E92582F8E622BBFE06E92582F8E222F1
:0D002E00E58229F582E5833AF583E493220B
:10003B00EF8DF0A4A8F0CF8CF0A428CE8DF0A42ED9
:02004B00FE2293
:10004D00BC000BBE0029EF8DF084FFADF022E4CC97
:10005D00F875F008EF2FFFEE33FEEC33FCEE9DEC60
:10006D00984005FCEE9DFE0FD5F0E9E4CEFD22EDA6
:10007D00F8F5F0EE8420D21CFEADF075F008EF2FF0
:10008D00FFED33FD4007985006D5F0F222C398FDE1
:05009D000FD5F0EA227E
:00000001FF
